:100508008F0C8D0D120572AF0C12044C200002C323
:1005180022AF0D12044C200002C32212059CD322E4
:0204E6008F0C79
:1004E800120572E50C04FF12044C2000037F002261
:0F04F8001204918F0DD20112054212059CAF0D17
:0105070022D1
:10057200D28100D2800000000000C2810000000091
:0605820000C2800000220F
:10059C00C28100D2800000000000D2810000000067
:0105AC00222C
:10044C00E4FEEEC39408748094805020A806EF0854
:10045C008002C333D8FC30E704D2818002C2810011
:10046C00D2800000000000C2800E80D60000D28135
:10047C000000D280000000308104C2008002D20053
:04048C00C28000002A
:010490002249
:10049100E4FFD281FEEEC394087480948050190069
:1004A100C2800000000000D2800000EF25E0FF3094
:0C04B10081010F00000E80DDC280000001
:0104BD00221C
:10054200200104C2818002D281000000D28000001A
:08055200000000C2800000223D
:1005AD00B5E7D1B9B2E2C1BFCFB5CDB30055203D4E
:0105BD00003D
:10058800C285D286D28775A0FFE5A05480648060BA
:04059800F8C28722FC
:0E05BE00120588C285C286D2878FA0C287220E
:0E05CC00120588D285C286D2878FA0C28722F0
:1004BE00D2827F011205BE1205287F301205BE7F43
:1004CE00011205287F061205BE7F011205287F0C3A
:0804DE001205BE7F0102052892
:1003D6007F811205BEE4F50CE50C9005AD93FF6038
:1003E6000C1205CC7F02120528050C80EB7F9012BB
:1003F60005BEE4F50CE50C9005BA93FF600C1205FA
:10040600CC7F02120528050C80EB7F921205BEAF49
:10041600111205CC7F931205BE7F2E1205CC7F9458
:100426001205BEAF101205CC7F951205BEAF0F1296
:1004360005CC7F961205BEAF0E1205CC7F9712052E
:06044600BE7F560205CC4A
:10052800E4FDEDC39F5012E4FEEEC3947D74809405
:090538008050030E80F30D80E9F0
:010541002297
:10055A00D2AFD2ACD2AB758920E4F58775985075C5
:08056A008DFD758BFDD28E2280
:060301001204BE12055AB1
:100307007D037F901205087F901204E67508008F21
:1003170009AC08AD09EC1201AE7B377A897981788F
:100327003F120003E4FBFA797F784312010C7B004C
:100337007A40799C78451200031201E78E0A8F0BE9
:100347007C007D0A120268ED2430F50EAE0AAF0B71
:100357007C007D0A1202687C007D0A120268ED2487
:1003670030F50FAE0AAF0B7C007D641202687C008B
:100377007D0A120268ED2430F510AE0AAF0B7C033C
:100387007DE8120268EF2430F5111203D620980396
:10039700020307C298859912E512645660030203A7
:1003A700078511997F0112052875992E7F0112057E
:1003B700288510997F01120528850F997F0112055D
:0C03C70028850E997F01120528759956B3
:0303D3000203071B
:10000300EC4D6011E8497017ED33EC3304600DE4F7
:10001300FCFFFEFD22E933E8330470F802025312B9
:10002300021E58046009E4CC2481500628500902BA
:10003300025D28400302025AC0E0EB4A7044B980D3
:1000430006D0E0FB020249EF4E701CBD8008EBFFB7
:10005300EAFEE9FD80EBE98DF0A4FEE5F00200EC99
:10006300E9CDF9EAFEEBFFEF89F0A4FCE5F0CE89D8
:10007300F0A42EFFE435F0CD89F0A42DFEE435F095
:100083008067EF4E7005BD80D780C3EF8BF0A4ACC3
:10009300F0EE8BF0A42CFCE435F0F8EF8AF0A42CFE
:1000A300E5F038FCE433CB8DF0A42CFCE5F03BF811
:1000B300EE8AF0A42CFCE5F038F8E433CF89F0A401
:1000C3002CFCE5F038CF3400CE89F0A42FFFE5F007
:1000D3003EFEE433C98DF0A42EFEE5F039CD8AF05F
:1000E300A42FFFE5F03EFEE43DFD33D0E0FB5007D7
:1000F3000BBB000F02025DEC2CFCEF33FFEE33FE73
:06010300ED33FD020235A0
:1001090002025DEC5D046005E859047003020253C4
:1001190012021E580460F6EC4860F2EC7004FDFE11
:10012900FF22C860DB2481C85009C39860025006C9
:1001390002025A9850CAF582E9294B4A7005AB82E6
:1001490002024975F0007C1A7880C3EF9BEE9AEDA4
:1001590099400DC3EF9BFFEE9AFEED99FDE842F041
:10016900DC23ACF0D0E0FFD0E0FED0E0FDAB822094
:10017900E7101BEB60BAEC2CFCEF33FFEE33FEED1E
:1001890033FD020235E803F830E705C0F075F000E9
:10019900EF2FFFEE33FEED33FD40B830E7C280AA02
:1001A90075F020800E75F010800575F0087D007ED1
:1001B900007F003392D530D50312029EEC334010F4
:1001C900EF33FFEE33FEED33FDEC33FCD5F0ED22DA
:0E01D900E5F0247EA2D513CC92E7CDCEFF2216
:1001E700EDD2E7CD33EC3392D524814006E4FFFE10
:1001F700FDFC22FCE4CFCECDCC24E0501174FF806F
:10020700EDC3CC13CCCD13CDCE13CECF13CF04700B
:07021700F030D5DE02029E6B
:10021E00E9D2E7C933E833F892D5EDD2E7CD33EC26
:07022E0033FC5002B2D5229F
:10023500EC30E7100FBF000C0EBE00080DBD00042A
:100245000BEB6014A2D5EB13FCED92E7FD2274FFD6
:10025500FCFDFEFF22E480F8A2D574FF13FC7D802F
:03026500E480EF43
:030000000205DA1C
:0C05DA00787FE4F6D8FD75812002030153
:10026800C2D5EC30E709B2D5E4C39DFDE49CFCEEB1
:1002780030E715B2D5E4C39FFFE49EFE1202ACC37B
:10028800E49DFDE49CFC80031202AC30D507C3E476
:060298009FFFE49EFE2220
:0E029E00C3E49FFFE49EFEE49DFDE49CFC2271
:1002AC00BC000BBE0029EF8DF084FFADF022E4CC36
:1002BC00F875F008EF2FFFEE33FEEC33FCEE9DECFF
:1002CC00984005FCEE9DFE0FD5F0E9E4CEFD22ED45
:1002DC00F8F5F0EE8420D21CFEADF075F008EF2F8F
:1002EC00FFED33FD4007985006D5F0F222C398FD80
:0502FC000FD5F0EA221D
:00000001FF
